{
  "contractName": "Notary",
  "abi": [
    {
      "inputs": [
        {
          "name": "hash",
          "type": "bytes32"
        }
      ],
      "payable": false,
      "stateMutability": "nonpayable",
      "type": "function",
      "constant": false,
      "name": "addDocHash",
      "outputs": []
    },
    {
      "constant": true,
      "inputs": [
        {
          "name": "hash",
          "type": "bytes32"
        }
      ],
      "name": "findDocHash",
      "outputs": [
        {
          "name": "",
          "type": "uint256",
          "components": [
            {
              "name": "mineTime",
              "type": "uint256"
            },
            {
              "name": "blockNumber",
              "type": "uint256"
            }
          ]
        },
        {
          "name": "",
          "type": "uint256"
        }
      ],
      "payable": false,
      "stateMutability": "view",
      "type": "function"
    },
    {
      "inputs": [],
      "payable": false,
      "stateMutability": "nonpayable",
      "type": "constructor",
      "constant": true,
      "name": "owner",
      "outputs": [
        {
          "name": "",
          "type": "address"
        }
      ]
    },
    {
      "constant": false,
      "inputs": [
        {
          "name": "newOwner",
          "type": "address"
        }
      ],
      "name": "transferOwnership",
      "outputs": [],
      "payable": false,
      "stateMutability": "nonpayable",
      "type": "function"
    },
    {
      "inputs": [],
      "payable": false,
      "stateMutability": "nonpayable",
      "type": "constructor"
    },
    {
      "anonymous": false,
      "inputs": [
        {
          "indexed": true,
          "name": "previousOwner",
          "type": "address"
        },
        {
          "indexed": true,
          "name": "newOwner",
          "type": "address"
        }
      ],
      "name": "OwnershipTransferred",
      "type": "event"
    }
  ],
  "bytecode": "0x6060604052341561000f57600080fd5b61019d8061001e6000396000f30060606040526004361061004c576000357c0100000000000000000000000000000000000000000000000000000000900463ffffffff168063133a48f3146100515780634cf00d3f14610078575b600080fd5b341561005c57600080fd5b6100766004808035600019169060200190919050506100ba565b005b341561008357600080fd5b61009d60048080356000191690602001909190505061010f565b604051808381526020018281526020019250505060405180910390f35b6100c2610157565b604080519081016040528042815260200143815250905080600080846000191660001916815260200190815260200160002060008201518160000155602082015181600101559050505050565b60008060008084600019166000191681526020019081526020016000206000015460008085600019166000191681526020019081526020016000206001015491509150915091565b6040805190810160405280600081526020016000815250905600a165627a7a723058207c0d220e1af0253e6327f5182eba455ffd8503190b6b8061a686593a6db4775b0029",
  "source": "pragma solidity ^0.4.4;\n\n\ncontract Notary {\n\n  struct Record {\n      uint mineTime;\n      uint blockNumber;\n  }\n\n  mapping (bytes32 => Record) private docHashes;\n\n  function Notary() public {\n    // constructor\n  }\n\n  function addDocHash (bytes32 hash) public {\n    Record memory newRecord = Record(now, block.number);\n    docHashes[hash] = newRecord;\n\n  }\n\n  function findDocHash (bytes32 hash) public constant returns(uint, uint) {\n    return (docHashes[hash].mineTime, docHashes[hash].blockNumber);\n  }\n\n}\n",
  "sourcePath": "/Users/stefan/blockchain/ethereum/notary/contracts/Notary.sol",
  "compiler": {
    "name": "solc",
    "version": "0.4.18+commit.9cf6e910.Emscripten.clang"
  },
  "schemaVersion": "1.0.1",
  "updatedAt": "2017-12-23T19:18:28.655Z"
}